:100000000C945B000C9483000C9483000C9483008C
:100010000C9483000C9483000C9483000C94830054
:100020000C9483000C9483000C9483000C94830044
:100030000C9483000C9483000C9483000C94830034
:100040000C94E6020C9483000C9438050C94830005
:100050000C9483000C9483000C9483000C94830014
:100060000C9483000C948300000024272A000025B0
:10007000282B000023262904040404040404040299
:100080000202020202030303030303010204081035
:100090002040800102040810200102040810200002
:1000A0000000070002010000030406000000000039
:1000B00000000000E50211241FBECFEFD4E0DEBF38
:1000C000CDBF11E0A0E0B1E0E8E7FDE002C005909F
:1000D0000D92AA31B107D9F711E0AAE1B1E001C050
:1000E0001D92AF3AB107E1F710E0C6EBD0E004C0D3
:1000F0002297FE010E94B706C43BD107C9F70E94B0
:100100000E020C94BB060C940000CF92DF92EF928B
:10011000FF920F931F937C014F2D552747FD5A9552
:10012000662757FD6095762F86E2C82E81E0D82E8F
:1001300020E030E0C6010E9498020027F7FC0095FD
:10014000102F8FEF90E0A0E0B0E0E822F9220A2320
:100150001B2320E030E0B801A701C6010E949802ED
:100160001F910F91FF90EF90DF90CF90089586E25E
:1001700091E00E94DB02882309F4BFC086E291E08F
:100180000E94D80280931C0180FF02C061E001C080
:1001900060E080910C010E94730480911C0181FF3A
:1001A00002C061E001C060E080910E010E94730412
:1001B00080911C0182FF02C061E001C060E080917B
:1001C00010010E94730480911C0183FF02C061E052
:1001D00001C060E0809112010E94730480911C01B3
:1001E00084FF02C061E001C060E0809114010E94C0
:1001F000730480911C0185FF02C061E001C060E0D2
:10020000809116010E94730410921D0180910001DB
:100210000E94270420911D01892B09F062C02160F2
:1002200020931D01809102010E94270420911D014D
:10023000892B09F058C0226020931D018091040190
:100240000E94270420911D01892B09F04EC02460D3
:1002500020931D01809106010E94270420911D0119
:10026000892B09F044C0286020931D01809108016A
:100270000E94270420911D01892BD9F5206120932C
:100280001D0180910A010E94270420911D01892BE4
:1002900091F5206220931D0160911D0186E291E09D
:1002A0000E94290280E00E9497030E94850081E05D
:1002B0000E9497030E94850082E00E9497030E949B
:1002C000850083E00E9497030E94850084E00E94DD
:1002D00097030E94850085E00E9497030E94850095
:1002E00008952E7F9DCF2D7FA7CF2B7FB1CF277F66
:1002F000BBCF2F7EC4CF2F7DCDCF089540E855E2F0
:1003000060E070E086E291E00E94DF0260E08091B0
:1003100000010E94090460E0809102010E9409042A
:1003200060E0809104010E94090460E08091060170
:100330000E94090460E0809108010E94090460E0C5
:1003400080910A010E94090461E080910C010E94E1
:10035000090461E080910E010E94090461E080912E
:1003600010010E94090461E0809112010E940904B9
:1003700061E0809114010E94090461E080911601FE
:100380000E94090461E0809100010E94730461E011
:10039000809102010E94730461E0809104010E9437
:1003A000730461E0809106010E94730461E0809112
:1003B00008010E94730461E080910A010E947304A5
:1003C00060E080910C010E94730460E080910E0156
:1003D0000E94730460E0809110010E94730460E049
:1003E000809112010E94730460E0809114010E94C8
:1003F000730460E0809116010E94730486E291E02C
:100400000E94D50204C086E291E00E94D80286E2F2
:1004100091E00E94DB028823B1F708950E94520305
:100420000E947E010E94B700FDCF08950895CB0180
:10043000BA013327442755270E947E0508952AE0F4
:100440000E9417020895AB01662777270E941F02BA
:100450000895862F0E9476050895862F0E947605BE
:1004600008950F931F938C016DE00E942D026AE0A6
:10047000C8010E942D021F910F9108950F931F93A1
:100480008C010E941F02C8010E9431021F910F912E
:1004900008950F931F938C010E942302C8010E94AC
:1004A00031021F910F9108950F931F938C010E94A9
:1004B0002902C8010E9431021F910F9108950F93E4
:1004C0001F938C010E942D02C8010E9431021F91CE
:1004D0000F910895EF92FF920F931F93CF93DF93A5
:1004E000EC017A018B0177FF0BC06DE20E942D02B7
:1004F00010950095F094E094E11CF11C011D111D74
:100500002AE0B801A701CE010E941702DF91CF9126
:100510001F910F91FF90EF9008950F931F938C01FF
:100520000E946A02C8010E9431021F910F91089532
:100530002115310521F4642F0E942D0208952A30DF
:10054000310519F40E946A0208950E941702089565
:100550000F931F938C010E949802C8010E943102E0
:100560001F910F910895AB01662757FD6095762F77
:100570000E946A0208950F931F938C010E94B30298
:10058000C8010E9431021F910F910895CB010E9472
:10059000440608950F931F938C010E94C602C80160
:1005A0000E9431021F910F9108950E942F05089516
:1005B0000E94100508950E94FF0499270895CB0119
:1005C000BA010E94BE040895089508951F920F92E3
:1005D0000FB60F9211248F939F93AF93BF93809187
:1005E0002B0190912C01A0912D01B0912E0101962B
:1005F000A11DB11D80932B0190932C01A0932D017F
:10060000B0932E01BF91AF919F918F910F900FBE2C
:100610000F901F90189560912B0170912C01809183
:100620002D0190912E0127E0660F771F881F991FDB
:100630002A95D1F72DE730E040E050E00E946406B3
:10064000CA01B9010895AF92BF92CF92DF92EF92A3
:10065000FF920F931F935B016C010E940B037B01C0
:100660008C010E940B036E197F09800B910B6A1598
:100670007B058C059D05A8F31F910F91FF90EF90CE
:10068000DF90CF90BF90AF900895019751F0880F01
:10069000991F880F991F02972FB7F8940197F1F7C8
:1006A0002FBF0895789410922B0110922C01109274
:1006B0002D0110922E0184B5826084BD84B58160C5
:1006C00084BD85B5826085BD85B5816085BDEEE65A
:1006D000F0E0808181608083E1E8F0E080818260E9
:1006E0008083808181608083E0E8F0E080818160A8
:1006F0008083E1EBF0E0808184608083E0EBF0E0D8
:10070000808181608083EAE7F0E08081846080837B
:100710008081826080838081816080838081806825
:1007200080831092C10008958093180108959091DC
:1007300018019295990F990F907C8F70982B909338
:100740007C0080917A00806480937A0080917A00A6
:1007500086FDFCCF20917800809179009927982F11
:1007600088273327822B932B08951F93CF93DF93F2
:10077000182FEB0161E00E940904E12FFF27E156E9
:10078000FF4F8491833051F4809180008068809382
:100790008000D0938900C093880037C0843051F422
:1007A00080918000806280938000D0938B00C09302
:1007B0008A002BC0813029F484B5806884BDC7BD10
:1007C00024C0823029F484B5806284BDC8BD1DC0B8
:1007D000863041F48091B00080688093B000C0936F
:1007E000B30013C0873041F48091B00080628093E1
:1007F000B000C093B40009C0C038D10514F460E063
:1008000001C061E0812F0E947304DF91CF911F919D
:100810000895282F3327C90185579F4FFC019491D4
:1008200029583F4FF9018491882381F0E82FFF2751
:10083000E859FF4FE491FF27662329F480819095C2
:100840008923808308958081892B80830895482F90
:100850005527CA0181569F4FFC012491CA01855733
:100860009F4FFC01949149585F4FFA013491332313
:1008700019F480E090E00895222331F1233021F42F
:10088000809180008F7705C0243031F48091800002
:100890008F7D8093800018C0213019F484B58F7744
:1008A00004C0223021F484B58F7D84BD0DC0263074
:1008B00021F48091B0008F7705C0273029F4809112
:1008C000B0008F7D8093B000E32FFF27EE58FF4FDD
:1008D000E491FF27808120E030E0892311F021E0BE
:1008E00030E0C9010895482F5527CA0181569F4F0E
:1008F000FC012491CA0185579F4FFC0194914958EE
:100900005F4FFA0134913323C1F1222331F12330B7
:1009100021F4809180008F7705C0243031F48091DC
:1009200080008F7D8093800018C0213019F484B539
:100930008F7704C0223021F484B58F7D84BD0DC033
:10094000263021F48091B0008F7705C0273029F43C
:100950008091B0008F7D8093B000E32FFF27E35993
:10096000FF4FE491FF27662329F480819095892326
:10097000808308958081892B80830895EF92FF9270
:100980000F931F937B018C0122E030E040E050E0A8
:100990000E948606205C3D4B404F5F4FCA01B90163
:1009A000A80197010E9486062150304040405040E7
:1009B000BB2757FDBA95A52F942F832F2F5F3F4F4D
:1009C0004F4F5F4F8093C50021502093C400E1EC4E
:1009D000F0E0808180618083808188608083808175
:1009E000806880831F910F91FF90EF900895982F5A
:1009F0008091C00085FFFCCF9093C6000895809140
:100A00002701909128012091290130912A01821B10
:100A1000930B80589F4F60E870E00E945106089544
:100A20004091290150912A0180912701909128013C
:100A30008417950719F48FEF9FEF0895FA01E15D90
:100A4000FE4F2081CA01019660E870E00E945106C5
:100A500090932A0180932901822F992708958091EC
:100A6000290190912A0190932801809327010895EC
:100A70001F920F920FB60F9211242F933F934F9313
:100A80005F936F937F938F939F93AF93BF93EF93F6
:100A9000FF934091C600E0912701F0912801CF011A
:100AA000019660E870E00E9451069C018091290146
:100AB00090912A012817390739F0E15DFE4F4083F4
:100AC0003093280120932701FF91EF91BF91AF91BF
:100AD0009F918F917F916F915F914F913F912F9156
:100AE0000F900FBE0F901F9018950895982F80912A
:100AF000C00085FFFCCF9093C60008952F923F92CF
:100B00004F925F926F927F928F929F92AF92BF921D
:100B1000CF92DF92EF92FF920F931F93CF93DF93C9
:100B2000CDB7DEB7A0970FB6F894DEBF0FBECDBF2E
:100B30006B017C0129013A0161157105810591055F
:100B400041F48091C00085FFFCCF80E38093C60014
:100B500041C08824992454011E010894211C311C91
:100B60008101080D191DC701B601A30192010E9460
:100B70006406F80160830894811C911CA11CB11CBF
:100B8000C701B601A30192010E94640669017A01BE
:100B9000211531054105510519F79E012F5F3F4F82
:100BA00014C0089481089108A108B108F901E80D62
:100BB000F91DE081EA3010F4E05D01C0E95C80914C
:100BC000C00085FFFCCFE093C60081149104A1040E
:100BD000B10439F7A0960FB6F894DEBF0FBECDBFB3
:100BE000DF91CF911F910F91FF90EF90DF90CF9009
:100BF000BF90AF909F908F907F906F905F904F903D
:100C00003F902F90089520E130E040E050E00E94B6
:100C10007E05089528E030E040E050E00E947E0527
:100C2000089522E030E040E050E00E947E05089503
:100C30008091C00085FFFCCF8AE08093C6000895B4
:100C4000EF92FF920F931F937B018C0197FF0FC0D0
:100C50008091C00085FFFCCF8DE28093C600109587
:100C60000095F094E094E11CF11C011D111D2AE097
:100C700030E040E050E0C801B7010E947E051F91BE
:100C80000F91FF90EF900895FC0107C08091C00084
:100C900085FFFCCF31969093C60090819923B1F7E0
:100CA000089597FB092E07260AD077FD04D049D076
:100CB00006D000201AF4709561957F4F0895F6F7DD
:100CC000909581959F4F0895A1E21A2EAA1BBB1BF8
:100CD000FD010DC0AA1FBB1FEE1FFF1FA217B30708
:100CE000E407F50720F0A21BB30BE40BF50B661F1E
:100CF000771F881F991F1A9469F7609570958095E2
:100D000090959B01AC01BD01CF01089597FB092E81
:100D100005260ED057FD04D0D7DF0AD0001C38F4CA
:100D200050954095309521953F4F4F4F5F4F089517
:100D3000F6F790958095709561957F4F8F4F9F4FF7
:100D40000895AA1BBB1B51E107C0AA1FBB1FA61712
:100D5000B70710F0A61BB70B881F991F5A95A9F764
:100D600080959095BC01CD010895EE0FFF1F059071
:080D7000F491E02D0994FFCF7E
:100D7800020003000400050006000700080009003F
:0A0D88000A000B000C000D00010032
:00000001FF
